{"src/Charger.sol":{"Charger":{"abi":[{"inputs":[{"internalType":"address","name":"_token","type":"address"},{"internalType":"address","name":"_treasury","type":"address"},{"internalType":"uint256","name":"_maxSingleCharge","type":"uint256"},{"internalType":"address","name":"_owner","type":"address"}],"stateMutability":"nonpayable","type":"constructor"},{"inputs":[],"name":"EnforcedPause","type":"error"},{"inputs":[],"name":"ExceedsMaxSingleCharge","type":"error"},{"inputs":[],"name":"ExpectedPause","type":"error"},{"inputs":[],"name":"NotOperator","type":"error"},{"inputs":[{"internalType":"address","name":"owner","type":"address"}],"name":"OwnableInvalidOwner","type":"error"},{"inputs":[{"internalType":"address","name":"account","type":"address"}],"name":"OwnableUnauthorizedAccount","type":"error"},{"inputs":[],"name":"ReentrancyGuardReentrantCall","type":"error"},{"inputs":[],"name":"TransferFailed","type":"error"},{"inputs":[],"name":"ZeroAddress","type":"error"},{"inputs":[],"name":"ZeroAmount","type":"error"},{"anonymous":false,"inputs":[{"indexed":true,"internalType":"address","name":"user","type":"address"},{"indexed":false,"internalType":"uint256","name":"amount","type":"uint256"},{"indexed":false,"internalType":"bytes32","name":"ref","type":"bytes32"},{"indexed":true,"internalType":"address","name":"operator","type":"address"}],"name":"Charged","type":"event"},{"anonymous":false,"inputs":[{"indexed":false,"internalType":"uint256","name":"previousMax","type":"uint256"},{"indexed":false,"internalType":"uint256","name":"newMax","type":"uint256"}],"name":"MaxSingleChargeSet","type":"event"},{"anonymous":false,"inputs":[{"indexed":true,"internalType":"address","name":"operator","type":"address"},{"indexed":false,"internalType":"bool","name":"status","type":"bool"}],"name":"OperatorSet","type":"event"},{"anonymous":false,"inputs":[{"indexed":true,"internalType":"address","name":"previousOwner","type":"address"},{"indexed":true,"internalType":"address","name":"newOwner","type":"address"}],"name":"OwnershipTransferred","type":"event"},{"anonymous":false,"inputs":[{"indexed":false,"internalType":"address","name":"account","type":"address"}],"name":"Paused","type":"event"},{"anonymous":false,"inputs":[{"indexed":true,"internalType":"address","name":"previousTreasury","type":"address"},{"indexed":true,"internalType":"address","name":"newTreasury","type":"address"}],"name":"TreasurySet","type":"event"},{"anonymous":false,"inputs":[{"indexed":false,"internalType":"address","name":"account","type":"address"}],"name":"Unpaused","type":"event"},{"inputs":[{"internalType":"address","name":"user","type":"address"},{"internalType":"uint256","name":"amount","type":"uint256"},{"internalType":"bytes32","name":"ref","type":"bytes32"}],"name":"charge","outputs":[],"stateMutability":"nonpayable","type":"function"},{"inputs":[],"name":"maxSingleCharge","outputs":[{"internalType":"uint256","name":"","type":"uint256"}],"stateMutability":"view","type":"function"},{"inputs":[{"internalType":"address","name":"","type":"address"}],"name":"operators","outputs":[{"internalType":"bool","name":"","type":"bool"}],"stateMutability":"view","type":"function"},{"inputs":[],"name":"owner","outputs":[{"internalType":"address","name":"","type":"address"}],"stateMutability":"view","type":"function"},{"inputs":[],"name":"pause","outputs":[],"stateMutability":"nonpayable","type":"function"},{"inputs":[],"name":"paused","outputs":[{"internalType":"bool","name":"","type":"bool"}],"stateMutability":"view","type":"function"},{"inputs":[],"name":"renounceOwnership","outputs":[],"stateMutability":"nonpayable","type":"function"},{"inputs":[{"internalType":"uint256","name":"_maxSingleCharge","type":"uint256"}],"name":"setMaxSingleCharge","outputs":[],"stateMutability":"nonpayable","type":"function"},{"inputs":[{"internalType":"address","name":"op","type":"address"},{"internalType":"bool","name":"status","type":"bool"}],"name":"setOperator","outputs":[],"stateMutability":"nonpayable","type":"function"},{"inputs":[{"internalType":"address","name":"_treasury","type":"address"}],"name":"setTreasury","outputs":[],"stateMutability":"nonpayable","type":"function"},{"inputs":[],"name":"token","outputs":[{"internalType":"contract IERC20","name":"","type":"address"}],"stateMutability":"view","type":"function"},{"inputs":[{"internalType":"address","name":"newOwner","type":"address"}],"name":"transferOwnership","outputs":[],"stateMutability":"nonpayable","type":"function"},{"inputs":[],"name":"treasury","outputs":[{"internalType":"address","name":"","type":"address"}],"stateMutability":"view","type":"function"},{"inputs":[],"name":"unpause","outputs":[],"stateMutability":"nonpayable","type":"function"}],"evm":{"bytecode":{"linkReferences":{},"object":"60a060405234801561001057600080fd5b50604051610a35380380610a3583398101604081905261002f9161015c565b806001600160a01b03811661005e57604051631e4fbdf760e01b81526000600482015260240160405180910390fd5b610067816100f0565b50600180556001600160a01b038416158061008957506001600160a01b038316155b8061009b57506001600160a01b038116155b156100b95760405163d92e233d60e01b815260040160405180910390fd5b506001600160a01b03928316608052600280549290931661010002610100600160a81b0319909216919091179091556003556101a9565b600080546001600160a01b038381166001600160a01b0319831681178455604051919092169283917f8be0079c531659141344cd1fd0a4f28419497f9722a3daafe3b4186f6b6457e09190a35050565b80516001600160a01b038116811461015757600080fd5b919050565b6000806000806080858703121561017257600080fd5b61017b85610140565b935061018960208601610140565b92506040850151915061019e60608601610140565b905092959194509250565b60805161086a6101cb6000396000818161020801526103c0015261086a6000f3fe608060405234801561001057600080fd5b50600436106100ea5760003560e01c80637daee1b21161008c578063c0ad427711610066578063c0ad4277146101ca578063f0f44260146101dd578063f2fde38b146101f0578063fc0c546a1461020357600080fd5b80637daee1b21461019e5780638456cb59146101b15780638da5cb5b146101b957600080fd5b80635c975abb116100c85780635c975abb1461014457806361d027b31461014f578063623b00f21461017f578063715018a61461019657600080fd5b806313e7c9d8146100ef5780633f4ba83a14610127578063558a729714610131575b600080fd5b6101126100fd366004610764565b60046020526000908152604090205460ff1681565b60405190151581526020015b60405180910390f35b61012f61022a565b005b61012f61013f366004610794565b61023c565b60025460ff16610112565b6002546101679061010090046001600160a01b031681565b6040516001600160a01b03909116815260200161011e565b61018860035481565b60405190815260200161011e565b61012f6102ca565b61012f6101ac3660046107cb565b6102dc565b61012f6104a2565b6000546001600160a01b0316610167565b61012f6101d83660046107fe565b6104b2565b61012f6101eb366004610764565b6104ff565b61012f6101fe366004610764565b610588565b6101677f000000000000000000000000000000000000000000000000000000000000000081565b6102326105cb565b61023a6105f8565b565b6102446105cb565b6001600160a01b03821661026b5760405163d92e233d60e01b815260040160405180910390fd5b6001600160a01b038216600081815260046020908152604091829020805460ff191685151590811790915591519182527f1a594081ae893ab78e67d9b9e843547318164322d32c65369d78a96172d9dc8f910160405180910390a25050565b6102d26105cb565b61023a600061064a565b3360009081526004602052604090205460ff1661030c57604051631f0853c160e21b815260040160405180910390fd5b61031461069a565b61031c6106c4565b6001600160a01b0383166103435760405163d92e233d60e01b815260040160405180910390fd5b8160000361036457604051631f2a200560e01b815260040160405180910390fd5b6003548211156103875760405163bdb59fd960e01b815260040160405180910390fd5b6002546040516323b872dd60e01b81526001600160a01b03858116600483015261010090920482166024820152604481018490526000917f000000000000000000000000000000000000000000000000000000000000000016906323b872dd906064016020604051808303816000875af1158015610409573d6000803e3d6000fd5b505050506040513d601f19601f8201168201806040525081019061042d9190610817565b90508061044d576040516312171d8360e31b815260040160405180910390fd5b604080518481526020810184905233916001600160a01b038716917f112c1491022310e4cdf18508465cec83aff4f130ea74a50c15f296f08cc4bd4d910160405180910390a35061049d60018055565b505050565b6104aa6105cb565b61023a6106e8565b6104ba6105cb565b600380549082905560408051828152602081018490527f4ea55da74f5a9f879e212959026a78a4a3e851031c9b21bfbd2d290ebfbf7ff1910160405180910390a15050565b6105076105cb565b6001600160a01b03811661052e5760405163d92e233d60e01b815260040160405180910390fd5b600280546001600160a01b03838116610100818102610100600160a81b031985161790945560405193909204169182907f21eb548722a564f6e09f039f7aa858ae94c911910f3823b37af2250eeca4f40390600090a35050565b6105906105cb565b6001600160a01b0381166105bf57604051631e4fbdf760e01b8152600060048201526024015b60405180910390fd5b6105c88161064a565b50565b6000546001600160a01b0316331461023a5760405163118cdaa760e01b81523360048201526024016105b6565b610600610725565b6002805460ff191690557f5db9ee0a495bf2e6ff9c91a7834c1ba4fdd244a5e8aa4e537bd38aeae4b073aa335b6040516001600160a01b03909116815260200160405180910390a1565b600080546001600160a01b038381166001600160a01b0319831681178455604051919092169283917f8be0079c531659141344cd1fd0a4f28419497f9722a3daafe3b4186f6b6457e09190a35050565b6002600154036106bd57604051633ee5aeb560e01b815260040160405180910390fd5b6002600155565b60025460ff161561023a5760405163d93c066560e01b815260040160405180910390fd5b6106f06106c4565b6002805460ff191660011790557f62e78cea01bee320cd4e420270b5ea74000d11b0c9f74754ebdbfc544b05a25861062d3390565b60025460ff1661023a57604051638dfc202b60e01b815260040160405180910390fd5b80356001600160a01b038116811461075f57600080fd5b919050565b60006020828403121561077657600080fd5b61077f82610748565b9392505050565b80151581146105c857600080fd5b600080604083850312156107a757600080fd5b6107b083610748565b915060208301356107c081610786565b809150509250929050565b6000806000606084860312156107e057600080fd5b6107e984610748565b95602085013595506040909401359392505050565b60006020828403121561081057600080fd5b5035919050565b60006020828403121561082957600080fd5b815161077f8161078656fea2646970667358221220bc80ae52574dea6589f5614780d355b704d0c81a62885e875030efbe5eb02edf64736f6c63430008140033","opcodes":"PUSH1 0xA0 PUSH1 0x40 MSTORE CALLVALUE DUP1 ISZERO PUSH2 0x10 JUMPI PUSH1 0x0 DUP1 REVERT JUMPDEST POP PUSH1 0x40 MLOAD PUSH2 0xA35 CODESIZE SUB DUP1 PUSH2 0xA35 DUP4 CODECOPY DUP2 ADD PUSH1 0x40 DUP2 SWAP1 MSTORE PUSH2 0x2F SWAP2 PUSH2 0x15C JUMP JUMPDEST DUP1 PUSH1 0x1 PUSH1 0x1 PUSH1 0xA0 SHL SUB DUP2 AND PUSH2 0x5E JUMPI PUSH1 0x40 MLOAD PUSH4 0x1E4FBDF7 PUSH1 0xE0 SHL DUP2 MSTORE PUSH1 0x0 PUSH1 0x4 DUP3 ADD MSTORE PUSH1 0x24 ADD PUSH1 0x40 MLOAD DUP1 SWAP2 SUB SWAP1 REVERT JUMPDEST PUSH2 0x67 DUP2 PUSH2 0xF0 JUMP JUMPDEST POP PUSH1 0x1 DUP1 SSTORE PUSH1 0x1 PUSH1 0x1 PUSH1 0xA0 SHL SUB DUP5 AND ISZERO DUP1 PUSH2 0x89 JUMPI POP PUSH1 0x1 PUSH1 0x1 PUSH1 0xA0 SHL SUB DUP4 AND ISZERO JUMPDEST DUP1 PUSH2 0x9B JUMPI POP PUSH1 0x1 PUSH1 0x1 PUSH1 0xA0 SHL SUB DUP2 AND ISZERO JUMPDEST ISZERO PUSH2 0xB9 JUMPI PUSH1 0x40 MLOAD PUSH4 0xD92E233D PUSH1 0xE0 SHL DUP2 MSTORE PUSH1 0x4 ADD PUSH1 0x40 MLOAD DUP1 SWAP2 SUB SWAP1 REVERT JUMPDEST POP PUSH1 0x1 PUSH1 0x1 PUSH1 0xA0 SHL SUB SWAP3 DUP4 AND PUSH1 0x80 MSTORE PUSH1 0x2 DUP1 SLOAD SWAP3 SWAP1 SWAP4 AND PUSH2 0x100 MUL PUSH2 0x100 PUSH1 0x1 PUSH1 0xA8 SHL SUB NOT SWAP1 SWAP3 AND SWAP2 SWAP1 SWAP2 OR SWAP1 SWAP2 SSTORE PUSH1 0x3 SSTORE PUSH2 0x1A9 JUMP JUMPDEST PUSH1 0x0 DUP1 SLOAD PUSH1 0x1 PUSH1 0x1 PUSH1 0xA0 SHL SUB DUP4 DUP2 AND PUSH1 0x1 PUSH1 0x1 PUSH1 0xA0 SHL SUB NOT DUP4 AND DUP2 OR DUP5 SSTORE PUSH1 0x40 MLOAD SWAP2 SWAP1 SWAP3 AND SWAP3 DUP4 SWAP2 PUSH32 0x8BE0079C531659141344CD1FD0A4F28419497F9722A3DAAFE3B4186F6B6457E0 SWAP2 SWAP1 LOG3 POP POP JUMP JUMPDEST DUP1 MLOAD PUSH1 0x1 PUSH1 0x1 PUSH1 0xA0 SHL SUB DUP2 AND DUP2 EQ PUSH2 0x157 JUMPI PUSH1 0x0 DUP1 REVERT JUMPDEST SWAP2 SWAP1 POP JUMP JUMPDEST PUSH1 0x0 DUP1 PUSH1 0x0 DUP1 PUSH1 0x80 DUP6 DUP8 SUB SLT ISZERO PUSH2 0x172 JUMPI PUSH1 0x0 DUP1 REVERT JUMPDEST PUSH2 0x17B DUP6 PUSH2 0x140 JUMP JUMPDEST SWAP4 POP PUSH2 0x189 PUSH1 0x20 DUP7 ADD PUSH2 0x140 JUMP JUMPDEST SWAP3 POP PUSH1 0x40 DUP6 ADD MLOAD SWAP2 POP PUSH2 0x19E PUSH1 0x60 DUP7 ADD PUSH2 0x140 JUMP JUMPDEST SWAP1 POP SWAP3 SWAP6 SWAP2 SWAP5 POP SWAP3 POP JUMP JUMPDEST PUSH1 0x80 MLOAD PUSH2 0x86A PUSH2 0x1CB PUSH1 0x0 CODECOPY PUSH1 0x0 DUP2 DUP2 PUSH2 0x208 ADD MSTORE PUSH2 0x3C0 ADD MSTORE PUSH2 0x86A PUSH1 0x0 RETURN INVALID PUSH1 0x80 PUSH1 0x40 MSTORE CALLVALUE DUP1 ISZERO PUSH2 0x10 JUMPI PUSH1 0x0 DUP1 REVERT JUMPDEST POP PUSH1 0x4 CALLDATASIZE LT PUSH2 0xEA JUMPI PUSH1 0x0 CALLDATALOAD PUSH1 0xE0 SHR DUP1 PUSH4 0x7DAEE1B2 GT PUSH2 0x8C JUMPI DUP1 PUSH4 0xC0AD4277 GT PUSH2 0x66 JUMPI DUP1 PUSH4 0xC0AD4277 EQ PUSH2 0x1CA JUMPI DUP1 PUSH4 0xF0F44260 EQ PUSH2 0x1DD JUMPI DUP1 PUSH4 0xF2FDE38B EQ PUSH2 0x1F0 JUMPI DUP1 PUSH4 0xFC0C546A EQ PUSH2 0x203 JUMPI PUSH1 0x0 DUP1 REVERT JUMPDEST DUP1 PUSH4 0x7DAEE1B2 EQ PUSH2 0x19E JUMPI DUP1 PUSH4 0x8456CB59 EQ PUSH2 0x1B1 JUMPI DUP1 PUSH4 0x8DA5CB5B EQ PUSH2 0x1B9 JUMPI PUSH1 0x0 DUP1 REVERT JUMPDEST DUP1 PUSH4 0x5C975ABB GT PUSH2 0xC8 JUMPI DUP1 PUSH4 0x5C975ABB EQ PUSH2 0x144 JUMPI DUP1 PUSH4 0x61D027B3 EQ PUSH2 0x14F JUMPI DUP1 PUSH4 0x623B00F2 EQ PUSH2 0x17F JUMPI DUP1 PUSH4 0x715018A6 EQ PUSH2 0x196 JUMPI PUSH1 0x0 DUP1 REVERT JUMPDEST DUP1 PUSH4 0x13E7C9D8 EQ PUSH2 0xEF JUMPI DUP1 PUSH4 0x3F4BA83A EQ PUSH2 0x127 JUMPI DUP1 PUSH4 0x558A7297 EQ PUSH2 0x131 JUMPI JUMPDEST PUSH1 0x0 DUP1 REVERT JUMPDEST PUSH2 0x112 PUSH2 0xFD CALLDATASIZE PUSH1 0x4 PUSH2 0x764 JUMP JUMPDEST PUSH1 0x4 PUSH1 0x20 MSTORE PUSH1 0x0 SWAP1 DUP2 MSTORE PUSH1 0x40 SWAP1 KECCAK256 SLOAD PUSH1 0xFF AND DUP2 JUMP JUMPDEST PUSH1 0x40 MLOAD SWAP1 ISZERO ISZERO DUP2 MSTORE PUSH1 0x20 ADD JUMPDEST PUSH1 0x40 MLOAD DUP1 SWAP2 SUB SWAP1 RETURN JUMPDEST PUSH2 0x12F PUSH2 0x22A JUMP JUMPDEST STOP JUMPDEST PUSH2 0x12F PUSH2 0x13F CALLDATASIZE PUSH1 0x4 PUSH2 0x794 JUMP JUMPDEST PUSH2 0x23C JUMP JUMPDEST PUSH1 0x2 SLOAD PUSH1 0xFF AND PUSH2 0x112 JUMP JUMPDEST PUSH1 0x2 SLOAD PUSH2 0x167 SWAP1 PUSH2 0x100 SWAP1 DIV PUSH1 0x1 PUSH1 0x1 PUSH1 0xA0 SHL SUB AND DUP2 JUMP JUMPDEST PUSH1 0x40 MLOAD PUSH1 0x1 PUSH1 0x1 PUSH1 0xA0 SHL SUB SWAP1 SWAP2 AND DUP2 MSTORE PUSH1 0x20 ADD PUSH2 0x11E JUMP JUMPDEST PUSH2 0x188 PUSH1 0x3 SLOAD DUP2 JUMP JUMPDEST PUSH1 0x40 MLOAD SWAP1 DUP2 MSTORE PUSH1 0x20 ADD PUSH2 0x11E JUMP JUMPDEST PUSH2 0x12F PUSH2 0x2CA JUMP JUMPDEST PUSH2 0x12F PUSH2 0x1AC CALLDATASIZE PUSH1 0x4 PUSH2 0x7CB JUMP JUMPDEST PUSH2 0x2DC JUMP JUMPDEST PUSH2 0x12F PUSH2 0x4A2 JUMP JUMPDEST PUSH1 0x0 SLOAD PUSH1 0x1 PUSH1 0x1 PUSH1 0xA0 SHL SUB AND PUSH2 0x167 JUMP JUMPDEST PUSH2 0x12F PUSH2 0x1D8 CALLDATASIZE PUSH1 0x4 PUSH2 0x7FE JUMP JUMPDEST PUSH2 0x4B2 JUMP JUMPDEST PUSH2 0x12F PUSH2 0x1EB CALLDATASIZE PUSH1 0x4 PUSH2 0x764 JUMP JUMPDEST PUSH2 0x4FF JUMP JUMPDEST PUSH2 0x12F PUSH2 0x1FE CALLDATASIZE PUSH1 0x4 PUSH2 0x764 JUMP JUMPDEST PUSH2 0x588 JUMP JUMPDEST PUSH2 0x167 PUSH32 0x0 DUP2 JUMP JUMPDEST PUSH2 0x232 PUSH2 0x5CB JUMP JUMPDEST PUSH2 0x23A PUSH2 0x5F8 JUMP JUMPDEST JUMP JUMPDEST PUSH2 0x244 PUSH2 0x5CB JUMP JUMPDEST PUSH1 0x1 PUSH1 0x1 PUSH1 0xA0 SHL SUB DUP3 AND PUSH2 0x26B JUMPI PUSH1 0x40 MLOAD PUSH4 0xD92E233D PUSH1 0xE0 SHL DUP2 MSTORE PUSH1 0x4 ADD PUSH1 0x40 MLOAD DUP1 SWAP2 SUB SWAP1 REVERT JUMPDEST PUSH1 0x1 PUSH1 0x1 PUSH1 0xA0 SHL SUB DUP3 AND PUSH1 0x0 DUP2 DUP2 MSTORE PUSH1 0x4 PUSH1 0x20 SWAP1 DUP2 MSTORE PUSH1 0x40 SWAP2 DUP3 SWAP1 KECCAK256 DUP1 SLOAD PUSH1 0xFF NOT AND DUP6 ISZERO ISZERO SWAP1 DUP2 OR SWAP1 SWAP2 SSTORE SWAP2 MLOAD SWAP2 DUP3 MSTORE PUSH32 0x1A594081AE893AB78E67D9B9E843547318164322D32C65369D78A96172D9DC8F SWAP2 ADD PUSH1 0x40 MLOAD DUP1 SWAP2 SUB SWAP1 LOG2 POP POP JUMP JUMPDEST PUSH2 0x2D2 PUSH2 0x5CB JUMP JUMPDEST PUSH2 0x23A PUSH1 0x0 PUSH2 0x64A JUMP JUMPDEST CALLER PUSH1 0x0 SWAP1 DUP2 MSTORE PUSH1 0x4 PUSH1 0x20 MSTORE PUSH1 0x40 SWAP1 KECCAK256 SLOAD PUSH1 0xFF AND PUSH2 0x30C JUMPI PUSH1 0x40 MLOAD PUSH4 0x1F0853C1 PUSH1 0xE2 SHL DUP2 MSTORE PUSH1 0x4 ADD PUSH1 0x40 MLOAD DUP1 SWAP2 SUB SWAP1 REVERT JUMPDEST PUSH2 0x314 PUSH2 0x69A JUMP JUMPDEST PUSH2 0x31C PUSH2 0x6C4 JUMP JUMPDEST PUSH1 0x1 PUSH1 0x1 PUSH1 0xA0 SHL SUB DUP4 AND PUSH2 0x343 JUMPI PUSH1 0x40 MLOAD PUSH4 0xD92E233D PUSH1 0xE0 SHL DUP2 MSTORE PUSH1 0x4 ADD PUSH1 0x40 MLOAD DUP1 SWAP2 SUB SWAP1 REVERT JUMPDEST DUP2 PUSH1 0x0 SUB PUSH2 0x364 JUMPI PUSH1 0x40 MLOAD PUSH4 0x1F2A2005 PUSH1 0xE0 SHL DUP2 MSTORE PUSH1 0x4 ADD PUSH1 0x40 MLOAD DUP1 SWAP2 SUB SWAP1 REVERT JUMPDEST PUSH1 0x3 SLOAD DUP3 GT ISZERO PUSH2 0x387 JUMPI PUSH1 0x40 MLOAD PUSH4 0xBDB59FD9 PUSH1 0xE0 SHL DUP2 MSTORE PUSH1 0x4 ADD PUSH1 0x40 MLOAD DUP1 SWAP2 SUB SWAP1 REVERT JUMPDEST PUSH1 0x2 SLOAD PUSH1 0x40 MLOAD PUSH4 0x23B872DD PUSH1 0xE0 SHL DUP2 MSTORE PUSH1 0x1 PUSH1 0x1 PUSH1 0xA0 SHL SUB DUP6 DUP2 AND PUSH1 0x4 DUP4 ADD MSTORE PUSH2 0x100 SWAP1 SWAP3 DIV DUP3 AND PUSH1 0x24 DUP3 ADD MSTORE PUSH1 0x44 DUP2 ADD DUP5 SWAP1 MSTORE PUSH1 0x0 SWAP2 PUSH32 0x0 AND SWAP1 PUSH4 0x23B872DD SWAP1 PUSH1 0x64 ADD PUSH1 0x20 PUSH1 0x40 MLOAD DUP1 DUP4 SUB DUP2 PUSH1 0x0 DUP8 GAS CALL ISZERO DUP1 ISZERO PUSH2 0x409 JUMPI RETURNDATASIZE PUSH1 0x0 DUP1 RETURNDATACOPY RETURNDATASIZE PUSH1 0x0 REVERT JUMPDEST POP POP POP POP PUSH1 0x40 MLOAD RETURNDATASIZE PUSH1 0x1F NOT PUSH1 0x1F DUP3 ADD AND DUP3 ADD DUP1 PUSH1 0x40 MSTORE POP DUP2 ADD SWAP1 PUSH2 0x42D SWAP2 SWAP1 PUSH2 0x817 JUMP JUMPDEST SWAP1 POP DUP1 PUSH2 0x44D JUMPI PUSH1 0x40 MLOAD PUSH4 0x12171D83 PUSH1 0xE3 SHL DUP2 MSTORE PUSH1 0x4 ADD PUSH1 0x40 MLOAD DUP1 SWAP2 SUB SWAP1 REVERT JUMPDEST PUSH1 0x40 DUP1 MLOAD DUP5 DUP2 MSTORE PUSH1 0x20 DUP2 ADD DUP5 SWAP1 MSTORE CALLER SWAP2 PUSH1 0x1 PUSH1 0x1 PUSH1 0xA0 SHL SUB DUP8 AND SWAP2 PUSH32 0x112C1491022310E4CDF18508465CEC83AFF4F130EA74A50C15F296F08CC4BD4D SWAP2 ADD PUSH1 0x40 MLOAD DUP1 SWAP2 SUB SWAP1 LOG3 POP PUSH2 0x49D PUSH1 0x1 DUP1 SSTORE JUMP JUMPDEST POP POP POP JUMP JUMPDEST PUSH2 0x4AA PUSH2 0x5CB JUMP JUMPDEST PUSH2 0x23A PUSH2 0x6E8 JUMP JUMPDEST PUSH2 0x4BA PUSH2 0x5CB JUMP JUMPDEST PUSH1 0x3 DUP1 SLOAD SWAP1 DUP3 SWAP1 SSTORE PUSH1 0x40 DUP1 MLOAD DUP3 DUP2 MSTORE PUSH1 0x20 DUP2 ADD DUP5 SWAP1 MSTORE PUSH32 0x4EA55DA74F5A9F879E212959026A78A4A3E851031C9B21BFBD2D290EBFBF7FF1 SWAP2 ADD PUSH1 0x40 MLOAD DUP1 SWAP2 SUB SWAP1 LOG1 POP POP JUMP JUMPDEST PUSH2 0x507 PUSH2 0x5CB JUMP JUMPDEST PUSH1 0x1 PUSH1 0x1 PUSH1 0xA0 SHL SUB DUP2 AND PUSH2 0x52E JUMPI PUSH1 0x40 MLOAD PUSH4 0xD92E233D PUSH1 0xE0 SHL DUP2 MSTORE PUSH1 0x4 ADD PUSH1 0x40 MLOAD DUP1 SWAP2 SUB SWAP1 REVERT JUMPDEST PUSH1 0x2 DUP1 SLOAD PUSH1 0x1 PUSH1 0x1 PUSH1 0xA0 SHL SUB DUP4 DUP2 AND PUSH2 0x100 DUP2 DUP2 MUL PUSH2 0x100 PUSH1 0x1 PUSH1 0xA8 SHL SUB NOT DUP6 AND OR SWAP1 SWAP5 SSTORE PUSH1 0x40 MLOAD SWAP4 SWAP1 SWAP3 DIV AND SWAP2 DUP3 SWAP1 PUSH32 0x21EB548722A564F6E09F039F7AA858AE94C911910F3823B37AF2250EECA4F403 SWAP1 PUSH1 0x0 SWAP1 LOG3 POP POP JUMP JUMPDEST PUSH2 0x590 PUSH2 0x5CB JUMP JUMPDEST PUSH1 0x1 PUSH1 0x1 PUSH1 0xA0 SHL SUB DUP2 AND PUSH2 0x5BF JUMPI PUSH1 0x40 MLOAD PUSH4 0x1E4FBDF7 PUSH1 0xE0 SHL DUP2 MSTORE PUSH1 0x0 PUSH1 0x4 DUP3 ADD MSTORE PUSH1 0x24 ADD JUMPDEST PUSH1 0x40 MLOAD DUP1 SWAP2 SUB SWAP1 REVERT JUMPDEST PUSH2 0x5C8 DUP2 PUSH2 0x64A JUMP JUMPDEST POP JUMP JUMPDEST PUSH1 0x0 SLOAD PUSH1 0x1 PUSH1 0x1 PUSH1 0xA0 SHL SUB AND CALLER EQ PUSH2 0x23A JUMPI PUSH1 0x40 MLOAD PUSH4 0x118CDAA7 PUSH1 0xE0 SHL DUP2 MSTORE CALLER PUSH1 0x4 DUP3 ADD MSTORE PUSH1 0x24 ADD PUSH2 0x5B6 JUMP JUMPDEST PUSH2 0x600 PUSH2 0x725 JUMP JUMPDEST PUSH1 0x2 DUP1 SLOAD PUSH1 0xFF NOT AND SWAP1 SSTORE PUSH32 0x5DB9EE0A495BF2E6FF9C91A7834C1BA4FDD244A5E8AA4E537BD38AEAE4B073AA CALLER JUMPDEST PUSH1 0x40 MLOAD PUSH1 0x1 PUSH1 0x1 PUSH1 0xA0 SHL SUB SWAP1 SWAP2 AND DUP2 MSTORE PUSH1 0x20 ADD PUSH1 0x40 MLOAD DUP1 SWAP2 SUB SWAP1 LOG1 JUMP JUMPDEST PUSH1 0x0 DUP1 SLOAD PUSH1 0x1 PUSH1 0x1 PUSH1 0xA0 SHL SUB DUP4 DUP2 AND PUSH1 0x1 PUSH1 0x1 PUSH1 0xA0 SHL SUB NOT DUP4 AND DUP2 OR DUP5 SSTORE PUSH1 0x40 MLOAD SWAP2 SWAP1 SWAP3 AND SWAP3 DUP4 SWAP2 PUSH32 0x8BE0079C531659141344CD1FD0A4F28419497F9722A3DAAFE3B4186F6B6457E0 SWAP2 SWAP1 LOG3 POP POP JUMP JUMPDEST PUSH1 0x2 PUSH1 0x1 SLOAD SUB PUSH2 0x6BD JUMPI PUSH1 0x40 MLOAD PUSH4 0x3EE5AEB5 PUSH1 0xE0 SHL DUP2 MSTORE PUSH1 0x4 ADD PUSH1 0x40 MLOAD DUP1 SWAP2 SUB SWAP1 REVERT JUMPDEST PUSH1 0x2 PUSH1 0x1 SSTORE JUMP JUMPDEST PUSH1 0x2 SLOAD PUSH1 0xFF AND ISZERO PUSH2 0x23A JUMPI PUSH1 0x40 MLOAD PUSH4 0xD93C0665 PUSH1 0xE0 SHL DUP2 MSTORE PUSH1 0x4 ADD PUSH1 0x40 MLOAD DUP1 SWAP2 SUB SWAP1 REVERT JUMPDEST PUSH2 0x6F0 PUSH2 0x6C4 JUMP JUMPDEST PUSH1 0x2 DUP1 SLOAD PUSH1 0xFF NOT AND PUSH1 0x1 OR SWAP1 SSTORE PUSH32 0x62E78CEA01BEE320CD4E420270B5EA74000D11B0C9F74754EBDBFC544B05A258 PUSH2 0x62D CALLER SWAP1 JUMP JUMPDEST PUSH1 0x2 SLOAD PUSH1 0xFF AND PUSH2 0x23A JUMPI PUSH1 0x40 MLOAD PUSH4 0x8DFC202B PUSH1 0xE0 SHL DUP2 MSTORE PUSH1 0x4 ADD PUSH1 0x40 MLOAD DUP1 SWAP2 SUB SWAP1 REVERT JUMPDEST DUP1 CALLDATALOAD PUSH1 0x1 PUSH1 0x1 PUSH1 0xA0 SHL SUB DUP2 AND DUP2 EQ PUSH2 0x75F JUMPI PUSH1 0x0 DUP1 REVERT JUMPDEST SWAP2 SWAP1 POP JUMP JUMPDEST PUSH1 0x0 PUSH1 0x20 DUP3 DUP5 SUB SLT ISZERO PUSH2 0x776 JUMPI PUSH1 0x0 DUP1 REVERT JUMPDEST PUSH2 0x77F DUP3 PUSH2 0x748 JUMP JUMPDEST SWAP4 SWAP3 POP POP POP JUMP JUMPDEST DUP1 ISZERO ISZERO DUP2 EQ PUSH2 0x5C8 JUMPI PUSH1 0x0 DUP1 REVERT JUMPDEST PUSH1 0x0 DUP1 PUSH1 0x40 DUP4 DUP6 SUB SLT ISZERO PUSH2 0x7A7 JUMPI PUSH1 0x0 DUP1 REVERT JUMPDEST PUSH2 0x7B0 DUP4 PUSH2 0x748 JUMP JUMPDEST SWAP2 POP PUSH1 0x20 DUP4 ADD CALLDATALOAD PUSH2 0x7C0 DUP2 PUSH2 0x786 JUMP JUMPDEST DUP1 SWAP2 POP POP SWAP3 POP SWAP3 SWAP1 POP JUMP JUMPDEST PUSH1 0x0 DUP1 PUSH1 0x0 PUSH1 0x60 DUP5 DUP7 SUB SLT ISZERO PUSH2 0x7E0 JUMPI PUSH1 0x0 DUP1 REVERT JUMPDEST PUSH2 0x7E9 DUP5 PUSH2 0x748 JUMP JUMPDEST SWAP6 PUSH1 0x20 DUP6 ADD CALLDATALOAD SWAP6 POP PUSH1 0x40 SWAP1 SWAP5 ADD CALLDATALOAD SWAP4 SWAP3 POP POP POP JUMP JUMPDEST PUSH1 0x0 PUSH1 0x20 DUP3 DUP5 SUB SLT ISZERO PUSH2 0x810 JUMPI PUSH1 0x0 DUP1 REVERT JUMPDEST POP CALLDATALOAD SWAP2 SWAP1 POP JUMP JUMPDEST PUSH1 0x0 PUSH1 0x20 DUP3 DUP5 SUB SLT ISZERO PUSH2 0x829 JUMPI PUSH1 0x0 DUP1 REVERT JUMPDEST DUP2 MLOAD PUSH2 0x77F DUP2 PUSH2 0x786 JUMP INVALID LOG2 PUSH5 0x6970667358 0x22 SLT KECCAK256 0xBC DUP1 0xAE MSTORE JUMPI 0x4D 0xEA PUSH6 0x89F5614780D3 SSTORE 0xB7 DIV 0xD0 0xC8 BYTE PUSH3 0x885E87 POP ADDRESS 0xEF 0xBE 0x5E 0xB0 0x2E 0xDF PUSH5 0x736F6C6343 STOP ADDMOD EQ STOP CALLER "},"methodIdentifiers":{"charge(address,uint256,bytes32)":"7daee1b2","maxSingleCharge()":"623b00f2","operators(address)":"13e7c9d8","owner()":"8da5cb5b","pause()":"8456cb59","paused()":"5c975abb","renounceOwnership()":"715018a6","setMaxSingleCharge(uint256)":"c0ad4277","setOperator(address,bool)":"558a7297","setTreasury(address)":"f0f44260","token()":"fc0c546a","transferOwnership(address)":"f2fde38b","treasury()":"61d027b3","unpause()":"3f4ba83a"}}}}}